{
  "contractName": "Themis",
  "abi": [
    {
      "inputs": [
        {
          "internalType": "address",
          "name": "_syncerAddress",
          "type": "address"
        }
      ],
      "stateMutability": "nonpayable",
      "type": "constructor"
    },
    {
      "inputs": [],
      "name": "owner",
      "outputs": [
        {
          "internalType": "address",
          "name": "",
          "type": "address"
        }
      ],
      "stateMutability": "view",
      "type": "function",
      "constant": true
    },
    {
      "inputs": [
        {
          "internalType": "uint256",
          "name": "",
          "type": "uint256"
        }
      ],
      "name": "parityData",
      "outputs": [
        {
          "internalType": "string",
          "name": "ccIsoAlpha2",
          "type": "string"
        },
        {
          "internalType": "string",
          "name": "ccIsoAlpha3",
          "type": "string"
        },
        {
          "internalType": "uint256",
          "name": "exchangeRate",
          "type": "uint256"
        },
        {
          "internalType": "uint256",
          "name": "ppp",
          "type": "uint256"
        },
        {
          "internalType": "uint256",
          "name": "pppConversionFactor",
          "type": "uint256"
        }
      ],
      "stateMutability": "view",
      "type": "function",
      "constant": true
    },
    {
      "inputs": [],
      "name": "syncer",
      "outputs": [
        {
          "internalType": "address",
          "name": "",
          "type": "address"
        }
      ],
      "stateMutability": "view",
      "type": "function",
      "constant": true
    },
    {
      "inputs": [
        {
          "internalType": "address",
          "name": "_newSyncer",
          "type": "address"
        }
      ],
      "name": "updateSyncer",
      "outputs": [],
      "stateMutability": "nonpayable",
      "type": "function"
    },
    {
      "inputs": [
        {
          "internalType": "uint256",
          "name": "_index",
          "type": "uint256"
        },
        {
          "internalType": "string",
          "name": "_ccIsoAlpha2",
          "type": "string"
        },
        {
          "internalType": "string",
          "name": "_ccIsoAlpha3",
          "type": "string"
        },
        {
          "internalType": "uint256",
          "name": "_exchangeRate",
          "type": "uint256"
        },
        {
          "internalType": "uint256",
          "name": "_ppp",
          "type": "uint256"
        },
        {
          "internalType": "uint256",
          "name": "_pppConversionFactor",
          "type": "uint256"
        }
      ],
      "name": "updateParityData",
      "outputs": [],
      "stateMutability": "nonpayable",
      "type": "function"
    }
  ],
  "bytecode": "0x608060405234801561001057600080fd5b506040516106db3803806106db8339818101604052602081101561003357600080fd5b5051600080546001600160a01b03199081163317909155600180546001600160a01b0390931692909116919091179055610669806100726000396000f3fe608060405234801561001057600080fd5b50600436106100575760003560e01c806339c580731461005c5780638da5cb5b1461019d5780639aaaa3d2146101c1578063a81cd300146102d1578063af456ab9146102d9575b600080fd5b61019b600480360360c081101561007257600080fd5b8135919081019060408101602082013564010000000081111561009457600080fd5b8201836020820111156100a657600080fd5b803590602001918460018302840111640100000000831117156100c857600080fd5b91908080601f016020809104026020016040519081016040528093929190818152602001838380828437600092019190915250929594936020810193503591505064010000000081111561011b57600080fd5b82018360208201111561012d57600080fd5b8035906020019184600183028401116401000000008311171561014f57600080fd5b91908080601f01602080910402602001604051908101604052809392919081815260200183838082843760009201919091525092955050823593505050602081013590604001356102ff565b005b6101a56103c2565b604080516001600160a01b039092168252519081900360200190f35b6101de600480360360208110156101d757600080fd5b50356103d1565b604051808060200180602001868152602001858152602001848152602001838103835288818151815260200191508051906020019080838360005b83811015610231578181015183820152602001610219565b50505050905090810190601f16801561025e5780820380516001836020036101000a031916815260200191505b50838103825287518152875160209182019189019080838360005b83811015610291578181015183820152602001610279565b50505050905090810190601f1680156102be5780820380516001836020036101000a031916815260200191505b5097505050505050505060405180910390f35b6101a561051c565b61019b600480360360208110156102ef57600080fd5b50356001600160a01b031661052b565b6001546001600160a01b03163314610352576040805162461bcd60e51b8152602060048201526011602482015270526573747269637465642041636365737360781b604482015290519081900360640190fd5b60008681526002602090815260409091208651610371928801906105a0565b5060008681526002602090815260409091208551610397926001909201918701906105a0565b5060009586526002602081905260409096209586019290925560038501556004909301929092555050565b6000546001600160a01b031681565b600260208181526000928352604092839020805484516001821615610100026000190190911693909304601f81018390048302840183019094528383529283918301828280156104625780601f1061043757610100808354040283529160200191610462565b820191906000526020600020905b81548152906001019060200180831161044557829003601f168201915b505050505090806001018054600181600116156101000203166002900480601f0160208091040260200160405190810160405280929190818152602001828054600181600116156101000203166002900480156105005780601f106104d557610100808354040283529160200191610500565b820191906000526020600020905b8154815290600101906020018083116104e357829003601f168201915b5050505050908060020154908060030154908060040154905085565b6001546001600160a01b031681565b6000546001600160a01b0316331461057e576040805162461bcd60e51b8152602060048201526011602482015270526573747269637465642041636365737360781b604482015290519081900360640190fd5b600180546001600160a01b0319166001600160a01b0392909216919091179055565b828054600181600116156101000203166002900490600052602060002090601f016020900481019282601f106105e157805160ff191683800117855561060e565b8280016001018555821561060e579182015b8281111561060e5782518255916020019190600101906105f3565b5061061a92915061061e565b5090565b5b8082111561061a576000815560010161061f56fea2646970667358221220eb686961702baf9e78062c059ddf72067e933b320d7518745c982a54090ab2de64736f6c63430007000033",
  "immutableReferences": {},
  "source": "/*\r\n  ______ __                      _\r\n /_  __// /_   ___   ____ ___   (_)_____\r\n  / /  / __ \\ / _ \\ / __ `__ \\ / // ___/\r\n / /  / / / //  __// / / / / // /(__  )\r\n/_/  /_/ /_/ \\___//_/ /_/ /_//_//____/\r\n\r\n*/\r\n\r\n// SPDX-License-Identifier: MIT\r\npragma solidity >=0.7.0 <0.8.0;\r\n\r\ncontract Themis {\r\n\r\n    struct ParityData {\r\n        string ccIsoAlpha2;\r\n        string ccIsoAlpha3;\r\n        uint256 exchangeRate;\r\n        uint256 ppp;\r\n        uint256 pppConversionFactor;\r\n    }\r\n\r\n    address public owner;\r\n    address public syncer;\r\n\r\n    mapping (uint256 => ParityData) public parityData;\r\n\r\n    modifier onlyOwner () {\r\n      require(msg.sender == owner, \"Restricted Access\");\r\n      _;\r\n    }\r\n\r\n    modifier onlySyncer () {\r\n      require(msg.sender == syncer, \"Restricted Access\");\r\n      _;\r\n    }\r\n\r\n    constructor(address _syncerAddress) {\r\n        owner = msg.sender;\r\n        syncer = _syncerAddress;\r\n    }\r\n\r\n    function updateSyncer(address _newSyncer)\r\n        public onlyOwner\r\n    {\r\n        syncer = _newSyncer;\r\n    }\r\n\r\n    function updateParityData(\r\n        uint256 _index,\r\n        string memory _ccIsoAlpha2,\r\n        string memory _ccIsoAlpha3,\r\n        uint256 _exchangeRate,\r\n        uint256 _ppp,\r\n        uint256 _pppConversionFactor\r\n    )\r\n        public onlySyncer\r\n    {\r\n\r\n        parityData[_index].ccIsoAlpha2 = _ccIsoAlpha2;\r\n        parityData[_index].ccIsoAlpha3 = _ccIsoAlpha3;\r\n        parityData[_index].exchangeRate = _exchangeRate;\r\n        parityData[_index].ppp = _ppp;\r\n        parityData[_index].pppConversionFactor = _pppConversionFactor;\r\n\r\n    }\r\n\r\n}\r\n",
  "sourcePath": "C:/Users/anudit/Documents/GitHub/themis/Contracts/contracts/Themis.sol",
  "compiler": {
    "name": "solc",
    "version": "0.7.0+commit.9e61f92b.Emscripten.clang"
  },
  "schemaVersion": "3.2.2",
  "updatedAt": "2020-08-21T17:32:09.409Z",
  "networkType": "ethereum",
  "devdoc": {
    "kind": "dev",
    "methods": {},
    "version": 1
  },
  "userdoc": {
    "kind": "user",
    "methods": {},
    "version": 1
  }
}